{
  "contractName": "TodolistTutorial",
  "abi": [
    {
      "inputs": [
        {
          "internalType": "address",
          "name": "",
          "type": "address"
        }
      ],
      "name": "taskCount",
      "outputs": [
        {
          "internalType": "uint256",
          "name": "",
          "type": "uint256"
        }
      ],
      "stateMutability": "view",
      "type": "function"
    },
    {
      "inputs": [
        {
          "internalType": "address",
          "name": "",
          "type": "address"
        },
        {
          "internalType": "uint256",
          "name": "",
          "type": "uint256"
        }
      ],
      "name": "tasks",
      "outputs": [
        {
          "internalType": "uint256",
          "name": "id",
          "type": "uint256"
        },
        {
          "internalType": "string",
          "name": "title",
          "type": "string"
        },
        {
          "internalType": "string",
          "name": "description",
          "type": "string"
        },
        {
          "internalType": "uint256",
          "name": "startDate",
          "type": "uint256"
        },
        {
          "internalType": "uint256",
          "name": "endDate",
          "type": "uint256"
        },
        {
          "internalType": "bool",
          "name": "isCompleted",
          "type": "bool"
        },
        {
          "internalType": "bool",
          "name": "isDeleted",
          "type": "bool"
        },
        {
          "internalType": "uint256",
          "name": "createdDate",
          "type": "uint256"
        }
      ],
      "stateMutability": "view",
      "type": "function"
    },
    {
      "inputs": [
        {
          "internalType": "string",
          "name": "_title",
          "type": "string"
        },
        {
          "internalType": "string",
          "name": "_description",
          "type": "string"
        },
        {
          "internalType": "uint256",
          "name": "_startDate",
          "type": "uint256"
        },
        {
          "internalType": "uint256",
          "name": "_endDate",
          "type": "uint256"
        }
      ],
      "name": "createTask",
      "outputs": [],
      "stateMutability": "payable",
      "type": "function"
    },
    {
      "inputs": [
        {
          "internalType": "address",
          "name": "userAddress",
          "type": "address"
        }
      ],
      "name": "getTaskCount",
      "outputs": [
        {
          "internalType": "uint256",
          "name": "",
          "type": "uint256"
        }
      ],
      "stateMutability": "view",
      "type": "function"
    },
    {
      "inputs": [
        {
          "internalType": "address",
          "name": "userAddress",
          "type": "address"
        }
      ],
      "name": "getAllTask",
      "outputs": [
        {
          "components": [
            {
              "internalType": "uint256",
              "name": "id",
              "type": "uint256"
            },
            {
              "internalType": "string",
              "name": "title",
              "type": "string"
            },
            {
              "internalType": "string",
              "name": "description",
              "type": "string"
            },
            {
              "internalType": "uint256",
              "name": "startDate",
              "type": "uint256"
            },
            {
              "internalType": "uint256",
              "name": "endDate",
              "type": "uint256"
            },
            {
              "internalType": "bool",
              "name": "isCompleted",
              "type": "bool"
            },
            {
              "internalType": "bool",
              "name": "isDeleted",
              "type": "bool"
            },
            {
              "internalType": "uint256",
              "name": "createdDate",
              "type": "uint256"
            }
          ],
          "internalType": "struct TodolistTutorial.Task[]",
          "name": "",
          "type": "tuple[]"
        }
      ],
      "stateMutability": "view",
      "type": "function"
    },
    {
      "inputs": [
        {
          "internalType": "uint256",
          "name": "_taskId",
          "type": "uint256"
        }
      ],
      "name": "getTaskById",
      "outputs": [
        {
          "components": [
            {
              "internalType": "uint256",
              "name": "id",
              "type": "uint256"
            },
            {
              "internalType": "string",
              "name": "title",
              "type": "string"
            },
            {
              "internalType": "string",
              "name": "description",
              "type": "string"
            },
            {
              "internalType": "uint256",
              "name": "startDate",
              "type": "uint256"
            },
            {
              "internalType": "uint256",
              "name": "endDate",
              "type": "uint256"
            },
            {
              "internalType": "bool",
              "name": "isCompleted",
              "type": "bool"
            },
            {
              "internalType": "bool",
              "name": "isDeleted",
              "type": "bool"
            },
            {
              "internalType": "uint256",
              "name": "createdDate",
              "type": "uint256"
            }
          ],
          "internalType": "struct TodolistTutorial.Task",
          "name": "",
          "type": "tuple"
        }
      ],
      "stateMutability": "view",
      "type": "function"
    },
    {
      "inputs": [
        {
          "internalType": "uint256",
          "name": "_taskId",
          "type": "uint256"
        }
      ],
      "name": "deleteTask",
      "outputs": [],
      "stateMutability": "nonpayable",
      "type": "function"
    },
    {
      "inputs": [
        {
          "internalType": "uint256",
          "name": "_taskId",
          "type": "uint256"
        },
        {
          "internalType": "bool",
          "name": "isCompleted",
          "type": "bool"
        }
      ],
      "name": "completeTask",
      "outputs": [],
      "stateMutability": "nonpayable",
      "type": "function"
    }
  ],
  "bytecode": "0x608060405234801561001057600080fd5b506119fd806100206000396000f3fe60806040526004361061007b5760003560e01c80637149d2e41161004e5780637149d2e41461014c578063976217cd14610190578063a4a268aa146101cd578063c64ecb8f146101e95761007b565b8063082d1abb146100805780633db98b04146100bd578063560f3192146100fa578063591744e214610123575b600080fd5b34801561008c57600080fd5b506100a760048036038101906100a2919061112d565b610226565b6040516100b491906115f9565b60405180910390f35b3480156100c957600080fd5b506100e460048036038101906100df919061112d565b61023e565b6040516100f19190611575565b60405180910390f35b34801561010657600080fd5b50610121600480360381019061011c9190611225565b610582565b005b34801561012f57600080fd5b5061014a6004803603810190610145919061124e565b610719565b005b34801561015857600080fd5b50610173600480360381019061016e9190611156565b6108b0565b604051610187989796959493929190611614565b60405180910390f35b34801561019c57600080fd5b506101b760048036038101906101b29190611225565b610a2f565b6040516101c491906115d7565b60405180910390f35b6101e760048036038101906101e29190611192565b610d44565b005b3480156101f557600080fd5b50610210600480360381019061020b919061112d565b610f51565b60405161021d91906115f9565b60405180910390f35b60016020528060005260406000206000915090505481565b6060600061024b83610f51565b905060008167ffffffffffffffff81111561028f577f4e487b7100000000000000000000000000000000000000000000000000000000600052604160045260246000fd5b6040519080825280602002602001820160405280156102c857816020015b6102b5610f9a565b8152602001906001900390816102ad5790505b50905060005b8281101561057757600015156000808773ffffffffffffffffffffffffffffffffffffffff1673ffffffffffffffffffffffffffffffffffffffff168152602001908152602001600020600083815260200190815260200160002060050160019054906101000a900460ff1615151415610564576000808673ffffffffffffffffffffffffffffffffffffffff1673ffffffffffffffffffffffffffffffffffffffff168152602001908152602001600020600082815260200190815260200160002060405180610100016040529081600082015481526020016001820180546103b7906117e6565b80601f01602080910402602001604051908101604052809291908181526020018280546103e3906117e6565b80156104305780601f1061040557610100808354040283529160200191610430565b820191906000526020600020905b81548152906001019060200180831161041357829003601f168201915b50505050508152602001600282018054610449906117e6565b80601f0160208091040260200160405190810160405280929190818152602001828054610475906117e6565b80156104c25780601f10610497576101008083540402835291602001916104c2565b820191906000526020600020905b8154815290600101906020018083116104a557829003601f168201915b5050505050815260200160038201548152602001600482015481526020016005820160009054906101000a900460ff161515151581526020016005820160019054906101000a900460ff16151515158152602001600682015481525050828281518110610558577f4e487b7100000000000000000000000000000000000000000000000000000000600052603260045260246000fd5b60200260200101819052505b808061056f90611849565b9150506102ce565b508092505050919050565b80600160003373ffffffffffffffffffffffffffffffffffffffff1673ffffffffffffffffffffffffffffffffffffffff168152602001908152602001600020548110610604576040517f08c379a00000000000000000000000000000000000000000000000000000000081526004016105fb90611597565b60405180910390fd5b600015156000803373ffffffffffffffffffffffffffffffffffffffff1673ffffffffffffffffffffffffffffffffffffffff168152602001908152602001600020600083815260200190815260200160002060050160019054906101000a900460ff161515146106aa576040517f08c379a00000000000000000000000000000000000000000000000000000000081526004016106a1906115b7565b60405180910390fd5b60016000803373ffffffffffffffffffffffffffffffffffffffff1673ffffffffffffffffffffffffffffffffffffffff168152602001908152602001600020600084815260200190815260200160002060050160016101000a81548160ff0219169083151502179055505050565b81600160003373ffffffffffffffffffffffffffffffffffffffff1673ffffffffffffffffffffffffffffffffffffffff16815260200190815260200160002054811061079b576040517f08c379a000000000000000000000000000000000000000000000000000000000815260040161079290611597565b60405180910390fd5b600015156000803373ffffffffffffffffffffffffffffffffffffffff1673ffffffffffffffffffffffffffffffffffffffff168152602001908152602001600020600083815260200190815260200160002060050160019054906101000a900460ff16151514610841576040517f08c379a0000000000000000000000000000000000000000000000000000000008152600401610838906115b7565b60405180910390fd5b816000803373ffffffffffffffffffffffffffffffffffffffff1673ffffffffffffffffffffffffffffffffffffffff168152602001908152602001600020600085815260200190815260200160002060050160006101000a81548160ff021916908315150217905550505050565b6000602052816000526040600020602052806000526040600020600091509150508060000154908060010180546108e6906117e6565b80601f0160208091040260200160405190810160405280929190818152602001828054610912906117e6565b801561095f5780601f106109345761010080835404028352916020019161095f565b820191906000526020600020905b81548152906001019060200180831161094257829003601f168201915b505050505090806002018054610974906117e6565b80601f01602080910402602001604051908101604052809291908181526020018280546109a0906117e6565b80156109ed5780601f106109c2576101008083540402835291602001916109ed565b820191906000526020600020905b8154815290600101906020018083116109d057829003601f168201915b5050505050908060030154908060040154908060050160009054906101000a900460ff16908060050160019054906101000a900460ff16908060060154905088565b610a37610f9a565b81600160003373ffffffffffffffffffffffffffffffffffffffff1673ffffffffffffffffffffffffffffffffffffffff168152602001908152602001600020548110610ab9576040517f08c379a0000000000000000000000000000000000000000000000000000000008152600401610ab090611597565b60405180910390fd5b600015156000803373ffffffffffffffffffffffffffffffffffffffff1673ffffffffffffffffffffffffffffffffffffffff168152602001908152602001600020600083815260200190815260200160002060050160019054906101000a900460ff16151514610b5f576040517f08c379a0000000000000000000000000000000000000000000000000000000008152600401610b56906115b7565b60405180910390fd5b6000803373ffffffffffffffffffffffffffffffffffffffff1673ffffffffffffffffffffffffffffffffffffffff16815260200190815260200160002060008481526020019081526020016000206040518061010001604052908160008201548152602001600182018054610bd4906117e6565b80601f0160208091040260200160405190810160405280929190818152602001828054610c00906117e6565b8015610c4d5780601f10610c2257610100808354040283529160200191610c4d565b820191906000526020600020905b815481529060010190602001808311610c3057829003601f168201915b50505050508152602001600282018054610c66906117e6565b80601f0160208091040260200160405190810160405280929190818152602001828054610c92906117e6565b8015610cdf5780601f10610cb457610100808354040283529160200191610cdf565b820191906000526020600020905b815481529060010190602001808311610cc257829003601f168201915b5050505050815260200160038201548152602001600482015481526020016005820160009054906101000a900460ff161515151581526020016005820160019054906101000a900460ff16151515158152602001600682015481525050915050919050565b604051806101000160405280600160003373ffffffffffffffffffffffffffffffffffffffff1673ffffffffffffffffffffffffffffffffffffffff168152602001908152602001600020548152602001858152602001848152602001838152602001828152602001600015158152602001600015158152602001428152506000803373ffffffffffffffffffffffffffffffffffffffff1673ffffffffffffffffffffffffffffffffffffffff1681526020019081526020016000206000600160003373ffffffffffffffffffffffffffffffffffffffff1673ffffffffffffffffffffffffffffffffffffffff168152602001908152602001600020548152602001908152602001600020600082015181600001556020820151816001019080519060200190610e77929190610fe3565b506040820151816002019080519060200190610e94929190610fe3565b50606082015181600301556080820151816004015560a08201518160050160006101000a81548160ff02191690831515021790555060c08201518160050160016101000a81548160ff02191690831515021790555060e08201518160060155905050600160003373ffffffffffffffffffffffffffffffffffffffff1673ffffffffffffffffffffffffffffffffffffffff1681526020019081526020016000206000815480929190610f4690611849565b919050555050505050565b6000600160008373ffffffffffffffffffffffffffffffffffffffff1673ffffffffffffffffffffffffffffffffffffffff168152602001908152602001600020549050919050565b6040518061010001604052806000815260200160608152602001606081526020016000815260200160008152602001600015158152602001600015158152602001600081525090565b828054610fef906117e6565b90600052602060002090601f0160209004810192826110115760008555611058565b82601f1061102a57805160ff1916838001178555611058565b82800160010185558215611058579182015b8281111561105757825182559160200191906001019061103c565b5b5090506110659190611069565b5090565b5b8082111561108257600081600090555060010161106a565b5090565b6000611099611094846116c5565b6116a0565b9050828152602081018484840111156110b157600080fd5b6110bc8482856117a4565b509392505050565b6000813590506110d381611982565b92915050565b6000813590506110e881611999565b92915050565b600082601f8301126110ff57600080fd5b813561110f848260208601611086565b91505092915050565b600081359050611127816119b0565b92915050565b60006020828403121561113f57600080fd5b600061114d848285016110c4565b91505092915050565b6000806040838503121561116957600080fd5b6000611177858286016110c4565b925050602061118885828601611118565b9150509250929050565b600080600080608085870312156111a857600080fd5b600085013567ffffffffffffffff8111156111c257600080fd5b6111ce878288016110ee565b945050602085013567ffffffffffffffff8111156111eb57600080fd5b6111f7878288016110ee565b935050604061120887828801611118565b925050606061121987828801611118565b91505092959194509250565b60006020828403121561123757600080fd5b600061124584828501611118565b91505092915050565b6000806040838503121561126157600080fd5b600061126f85828601611118565b9250506020611280858286016110d9565b9150509250929050565b600061129683836113e9565b905092915050565b60006112a982611706565b6112b38185611729565b9350836020820285016112c5856116f6565b8060005b8581101561130157848403895281516112e2858261128a565b94506112ed8361171c565b925060208a019950506001810190506112c9565b50829750879550505050505092915050565b61131c8161176e565b82525050565b61132b8161176e565b82525050565b600061133c82611711565b611346818561173a565b93506113568185602086016117b3565b61135f8161191f565b840191505092915050565b600061137582611711565b61137f818561174b565b935061138f8185602086016117b3565b6113988161191f565b840191505092915050565b60006113b060208361174b565b91506113bb82611930565b602082019050919050565b60006113d3601d8361174b565b91506113de82611959565b602082019050919050565b6000610100830160008301516114026000860182611557565b506020830151848203602086015261141a8282611331565b915050604083015184820360408601526114348282611331565b91505060608301516114496060860182611557565b50608083015161145c6080860182611557565b5060a083015161146f60a0860182611313565b5060c083015161148260c0860182611313565b5060e083015161149560e0860182611557565b508091505092915050565b6000610100830160008301516114b96000860182611557565b50602083015184820360208601526114d18282611331565b915050604083015184820360408601526114eb8282611331565b91505060608301516115006060860182611557565b5060808301516115136080860182611557565b5060a083015161152660a0860182611313565b5060c083015161153960c0860182611313565b5060e083015161154c60e0860182611557565b508091505092915050565b6115608161179a565b82525050565b61156f8161179a565b82525050565b6000602082019050818103600083015261158f818461129e565b905092915050565b600060208201905081810360008301526115b0816113a3565b9050919050565b600060208201905081810360008301526115d0816113c6565b9050919050565b600060208201905081810360008301526115f181846114a0565b905092915050565b600060208201905061160e6000830184611566565b92915050565b60006101008201905061162a600083018b611566565b818103602083015261163c818a61136a565b90508181036040830152611650818961136a565b905061165f6060830188611566565b61166c6080830187611566565b61167960a0830186611322565b61168660c0830185611322565b61169360e0830184611566565b9998505050505050505050565b60006116aa6116bb565b90506116b68282611818565b919050565b6000604051905090565b600067ffffffffffffffff8211156116e0576116df6118f0565b5b6116e98261191f565b9050602081019050919050565b6000819050602082019050919050565b600081519050919050565b600081519050919050565b6000602082019050919050565b600082825260208201905092915050565b600082825260208201905092915050565b600082825260208201905092915050565b60006117678261177a565b9050919050565b60008115159050919050565b600073ffffffffffffffffffffffffffffffffffffffff82169050919050565b6000819050919050565b82818337600083830152505050565b60005b838110156117d15780820151818401526020810190506117b6565b838111156117e0576000848401525b50505050565b600060028204905060018216806117fe57607f821691505b60208210811415611812576118116118c1565b5b50919050565b6118218261191f565b810181811067ffffffffffffffff821117156118405761183f6118f0565b5b80604052505050565b60006118548261179a565b91507fffffffffffffffffffffffffffffffffffffffffffffffffffffffffffffffff82141561188757611886611892565b5b600182019050919050565b7f4e487b7100000000000000000000000000000000000000000000000000000000600052601160045260246000fd5b7f4e487b7100000000000000000000000000000000000000000000000000000000600052602260045260246000fd5b7f4e487b7100000000000000000000000000000000000000000000000000000000600052604160045260246000fd5b6000601f19601f8301169050919050565b7f5461736b2077697468207468697320494420646f6573206e6f74206578697374600082015250565b7f5461736b20776974682074686973204944207761732064656c65746564000000600082015250565b61198b8161175c565b811461199657600080fd5b50565b6119a28161176e565b81146119ad57600080fd5b50565b6119b98161179a565b81146119c457600080fd5b5056fea2646970667358221220545a419b6993abda49bafe8645f6a682ff4a5dfd830813394c7c7a15c0cbc6ee64736f6c63430008040033",
  "immutableReferences": {},
  "source": "// SPDX-License-Identifier: MIT\r\npragma solidity >=0.7.0 <0.9.0;\r\n\r\ncontract TodolistTutorial {\r\n    struct Task {\r\n        uint256 id;\r\n        string title;\r\n        string description;\r\n        uint256 startDate;\r\n        uint256 endDate;\r\n        bool isCompleted;\r\n        bool isDeleted;\r\n        uint256 createdDate;\r\n    }\r\n\r\n    mapping(address => mapping(uint256 => Task)) public tasks;\r\n    mapping(address => uint256) public taskCount;\r\n\r\n    modifier taskExisted(uint256 _taskId) {\r\n        require(\r\n            _taskId < taskCount[msg.sender],\r\n            \"Task with this ID does not exist\"\r\n        );\r\n        require(\r\n            tasks[msg.sender][_taskId].isDeleted == false,\r\n            \"Task with this ID was deleted\"\r\n        );\r\n        _;\r\n    }\r\n\r\n    function createTask(\r\n        string memory _title,\r\n        string memory _description,\r\n        uint256 _startDate,\r\n        uint256 _endDate\r\n    ) public payable {\r\n        tasks[msg.sender][taskCount[msg.sender]] = Task(\r\n            taskCount[msg.sender],\r\n            _title,\r\n            _description,\r\n            _startDate,\r\n            _endDate,\r\n            false,\r\n            false,\r\n            block.timestamp\r\n        );\r\n        taskCount[msg.sender]++;\r\n    }\r\n\r\n    // Return amount tasks of userAddress\r\n    function getTaskCount(address userAddress) public view returns (uint256) {\r\n        return taskCount[userAddress];\r\n    }\r\n\r\n    // Return all task of userAddress\r\n    function getAllTask(\r\n        address userAddress\r\n    ) public view returns (Task[] memory) {\r\n        uint256 count = getTaskCount(userAddress);\r\n\r\n        Task[] memory allTasks = new Task[](count);\r\n        for (uint i = 0; i < count; i++) {\r\n            if (tasks[userAddress][i].isDeleted == false) {\r\n                allTasks[i] = tasks[userAddress][i];\r\n            }\r\n        }\r\n        return allTasks;\r\n    }\r\n\r\n    function getTaskById(\r\n        uint256 _taskId\r\n    ) public view taskExisted(_taskId) returns (Task memory) {\r\n        return tasks[msg.sender][_taskId];\r\n    }\r\n\r\n    function deleteTask(uint256 _taskId) public taskExisted(_taskId) {\r\n        tasks[msg.sender][_taskId].isDeleted = true;\r\n    }\r\n\r\n    function completeTask(\r\n        uint256 _taskId,\r\n        bool isCompleted\r\n    ) public taskExisted(_taskId) {\r\n        tasks[msg.sender][_taskId].isCompleted = isCompleted;\r\n    }\r\n}\r\n",
  "sourcePath": "/Users/macbook/Code/Solidity/Hau_todo_list/contract-todolist/contracts/TodolistTutorial.sol",
  "compiler": {
    "name": "solc",
    "version": "0.8.4+commit.c7e474f2.Emscripten.clang"
  },
  "schemaVersion": "3.4.14",
  "updatedAt": "2023-07-26T13:01:56.034Z",
  "devdoc": {
    "kind": "dev",
    "methods": {},
    "version": 1
  },
  "userdoc": {
    "kind": "user",
    "methods": {},
    "version": 1
  }
}